:100000000C9463000C948B000C948B000C948B006C
:100010000C948B000C948B000C948B000C948B0034
:100020000C948B000C948B000C948B000C940B04A0
:100030000C948B000C948B000C948B000C948B0014
:100040000C9417090C948B000C947F0A0C948B0071
:100050000C948B000C948B000C948B000C948B00F4
:100060000C948B000C948B000000000024002700EF
:100070002A0000000000250028002B0000000000DE
:1000800023002600290004040404040404040202DA
:100090000202020203030303030301020408102007
:1000A0004080010204081020010204081020000012
:1000B0000007000201000003040600000000000029
:1000C00000003F05040C11241FBECFEFD8E0DEBFB7
:1000D000CDBF11E0A0E0B1E0ECE6FBE102C005908D
:1000E0000D92A436B107D9F712E0A4E6B1E001C041
:1000F0001D92AC38B107E1F710E0C6ECD0E004C0C7
:100100002297FE010E94790DC23CD107C9F70E94D7
:1001100010090C94B40D0C940000AEE0B0E0E3E9DB
:10012000F0E00C948B0D0D891E8986E08C831A8378
:1001300009838FEF9FE79E838D839E01275E3F4F4C
:10014000CE0101966F89788DA9010E94B1002F819F
:100150003885020F131FF80110822E96E4E00C94EC
:10016000A70DABE0B0E0E7EBF0E00C947D0D3C01B7
:100170002B015A01FC0117821682838181FD03C085
:100180006FEF7FEFC6C19AE0892E1E010894211CF3
:10019000311CF3012381F20123FD859123FF81911D
:1001A0002F01882309F4B2C1853239F423FD8591EA
:1001B00023FF81912F01853229F490E0B3010E9441
:1001C000A402E7CF982FFF24EE249924FFE1FF1526
:1001D000D0F09B3269F09C3228F4903259F093327F
:1001E00091F40EC09D3249F0903369F441E024C08F
:1001F00052E0F52A84E0F82A28C098E0F92A25C0C0
:10020000E0E1FE2A22C0F7FC29C0892F80538A3002
:1002100070F4F6FE05C0989C902C1124980E15C021
:10022000E89CE02C1124E80EF0E2FF2A0EC09E327A
:1002300029F4F6FC6BC140E4F42A07C09C3619F49B
:1002400050E8F52A02C0983649F4F20123FD959151
:1002500023FF91912F01992309F0B8CF892F85545D
:10026000833018F08052833038F444E050E0A40E1C
:10027000B51E5FE359830FC0933631F0933779F0A1
:10028000933509F056C020C0F5018081898342E092
:1002900050E0A40EB51E610101E010E012C0F501AE
:1002A000C080D180F6FC03C06FEF7FEF02C0692DE4
:1002B00070E042E050E0A40EB51EC6010E94990213
:1002C0008C015FE7F52214C0F501C080D180F6FCF7
:1002D00003C06FEF7FEF02C0692D70E042E050E095
:1002E000A40EB51EC6010E948E028C0150E8F52AAC
:1002F000F3FE07C01AC080E290E0B3010E94A4029E
:10030000EA948E2D90E008171907A8F30EC0F601A5
:10031000F7FC8591F7FE81916F0190E0B3010E9497
:10032000A402E110EA94015010400115110579F77B
:10033000EAC0943611F0993669F5F7FE08C0F50168
:10034000208131814281538184E090E00AC0F5012F
:10035000808191819C01442737FD4095542F82E094
:1003600090E0A80EB91E9FE6F92257FF09C05095EC
:100370004095309521953F4F4F4F5F4FE0E8FE2A63
:10038000CA01B901A1012AE030E00E94D002D82EB2
:10039000D21840C0953729F41F2D1F7E2AE030E087
:1003A0001DC01F2D197F9F3661F0903720F49835BE
:1003B00009F0ACC00FC0903739F0983709F0A6C0EB
:1003C00004C028E030E00AC0106114FD146020E190
:1003D00030E004C014FD166020E132E017FF08C0D1
:1003E000F501608171818281938144E050E008C011
:1003F000F50180819181BC0180E090E042E050E015
:10040000A40EB51EA1010E94D002D82ED2188FE7EB
:10041000F82EF122F6FE0BC05EEFF522D91438F467
:10042000F4FE07C0F2FC05C08FEEF82202C01D2DBD
:1004300001C0192DF4FE0DC0FE01ED0DF11D8081EE
:10044000803319F499EEF92208C01F5FF2FE05C04F
:1004500003C08F2D867809F01F5F0F2DF3FC14C0A9
:10046000F0FE0FC01E1510F09D2C0BC09D2C9E0C95
:10047000911A1E2D06C080E290E0B3010E94A402F2
:100480001F5F1E15C0F304C01E1510F4E11A01C051
:10049000EE2404FF0FC080E390E0B3010E94A402A9
:1004A00002FF1DC001FD03C088E790E00EC088E593
:1004B00090E00BC0802F867891F001FF02C08BE2A4
:1004C00001C080E2F7FC8DE290E0B3010E94A4023B
:1004D00006C080E390E0B3010E94A4029A94D9146C
:1004E000C0F3DA94F101ED0DF11D808190E0B301CC
:1004F0000E94A402DD20A9F706C080E290E0B301CB
:100500000E94A402EA94EE20C1F743CEF301668173
:100510007781CB012B96E2E10C94990DFC010590BB
:10052000615070400110D8F7809590958E0F9F1FF5
:100530000895FC016150704001900110D8F780953A
:1005400090958E0F9F1F08950F931F93CF93DF9366
:100550008C01EB018B8181FF1BC082FF0DC02E81BE
:100560003F818C819D812817390764F4E881F981E6
:100570000193F983E88306C0E885F985802F099502
:10058000892B31F48E819F8101969F838E8302C0D7
:100590000FEF1FEFC801DF91CF911F910F910895C9
:1005A000FA01AA27283051F1203181F1E8946F93A4
:1005B0006E7F6E5F7F4F8F4F9F4FAF4FB1E03ED04A
:1005C000B4E03CD0670F781F891F9A1FA11D680FE8
:1005D000791F8A1F911DA11D6A0F711D811D911D1B
:1005E000A11D20D009F468943F912AE0269F112490
:1005F0003019305D3193DEF6CF010895462F4770F4
:10060000405D4193B3E00FD0C9F7F6CF462F4F704E
:10061000405D4A3318F0495D31FD4052419302D0AC
:10062000A9F7EACFB4E0A695979587957795679552
:10063000BA95C9F700976105710508959B01AC0152
:100640000A2E06945795479537952795BA95C9F779
:10065000620F731F841F951FA01D0895FC018091D8
:1006600064018C3090F480838F5F809364018150AB
:1006700090E0FC01EE0FFF1FE80FF91FEB59FE4F52
:1006800088EB9BE09283818308958FEF80830895A8
:10069000FC0120812C30C0F58181992787FD909540
:1006A00048E850E0481B590B440F551F440F551F95
:1006B0006417750784F08281992787FD909548E536
:1006C00052E0481B590B440F551F440F551F641728
:1006D00075070CF4AB01CA01AA2797FDA095BA2FA4
:1006E0000697A109B109880F991FAA1FBB1F4FB711
:1006F000F89430E0F901EE0FFF1FE20FF31FEB5902
:10070000FE4F928381834FBF0895CF92DF92EF9285
:10071000FF921F93CF93DF93EC01162F7A016901AB
:1007200088818C3008F064C0862F61E00E94C30984
:10073000888190E0FC01EE0FFF1FE80FF91FEB59D5
:10074000FE4F1F738081807C812B808380E292E04A
:100750008E199F0964E070E00E94130D698380E6A2
:1007600099E08C199D0964E070E00E94130D6A8382
:10077000A8818A2F6CE00E94070D682F70E0AB0102
:10078000440F551F460F571F440F551F440F551F49
:1007900020E030E0C901840F951FFC01EE0FFF1F20
:1007A000E80FF91FEB59FE4F808186FD15C02F5FC2
:1007B0003F4F2C30310571F724C01092800082E049
:1007C000809381001092850010928400B19A8091EC
:1007D0006F00826080936F008A2F90E0FC01EE0F23
:1007E000FF1FE80FF91FEB59FE4F80818064808363
:1007F0008881DF91CF911F91FF90EF90DF90CF9094
:100800000895672BD1F2E8CF40E252E020E639E0CC
:100810000E94850308951F920F920FB60F92112424
:100820002F933F934F935F936F937F938F939F93F8
:10083000AF93BF93EF93FF938091890187FF05C02A
:1008400010928500109284002BC0209189013327DB
:1008500027FD30958091640190E02817390704F551
:1008600080918901992787FD9095FC01EE0FFF1F6C
:10087000E80FF91FEB59FE4F808186FF11C0809170
:100880008901992787FD9095FC01EE0FFF1FE80F66
:10089000F91FEB59FE4F80818F7360E00E94E309DE
:1008A000809189018F5F809389012091890133278D
:1008B00027FD30958091640190E0281739070CF0EE
:1008C0004EC0809189018C300CF049C02091840089
:1008D0003091850080918901992787FD9095FC01D1
:1008E000EE0FFF1FE80FF91FEB59FE4F8181928138
:1008F000280F391F30938900209388008091890147
:10090000992787FD9095FC01EE0FFF1FE80FF91F57
:10091000EB59FE4F808186FF2AC08091890199277B
:1009200087FD9095FC01EE0FFF1FE80FF91FEB59B3
:10093000FE4F80818F7361E00E94E30918C080E45C
:100940009CE905C080918400909185000496909365
:100950008900809388008FEF8093890108C080917F
:1009600084009091850084549C4948F3EBCFFF911B
:10097000EF91BF91AF919F918F917F916F915F9117
:100980004F913F912F910F900FBE0F901F90189590
:100990001F93CF93DF93EC0110E009C0E981FA8146
:1009A000E10FF11D808160E00E94C3091F5F888113
:1009B0001817A0F3DF91CF911F910895FC01728366
:1009C000618340830E94C8040895EF92FF920F93C1
:1009D0001F937C01062F10E0DC011196ED91FC9134
:1009E0001297E00FF11F808161E00E94C309D701D7
:1009F0001196ED91FC911297E00FF11F808160E05C
:100A00000E94E3091F910F91FF90EF900895EF92DC
:100A1000FF920F931F937C01062F10E0DC011196CB
:100A2000ED91FC911297E00FF11F808161E00E942F
:100A3000C309D7011196ED91FC911297E00FF11FB8
:100A4000808161E00E94E3091F910F91FF90EF9078
:100A500008951F93CF93DF93EC01172F442339F0B0
:100A60000E940705CE01612F0E94E50404C0862F75
:100A700060E00E94C309DF91CF911F910895CF9349
:100A8000DF938AE891E060E471E043E00E94DE04D5
:100A900080914B0190914C0190938E0180938D0138
:100AA00080914501909146019093900180938F0130
:100AB0008091490190914A01909392018093910114
:100AC00080914D0190914E019093940180939301F8
:100AD00080914301909144019093960180939501F8
:100AE00080914701909148019093980180939701DC
:100AF000C2ECD1E0CE010E942E03239681E0C43DDA
:100B0000D807C1F7DF91CF9108959C01220F331FC1
:100B1000280F391F64527A4FC9018E539E4F0E948D
:100B200048030895CF92DF92EF92FF920F931F93A5
:100B3000DF93CF930F92CDB7DEB78983FF2407E011
:100B400010E051E0C52ED12C2981E02EC601002EE7
:100B500002C0880F991F0A94E2F730E082239323A2
:100B6000181619061CF487E061E002C087E060E017
:100B70000E94E30982E060E00E94E30984E00E94B1
:100B8000300A02C0880F991FEA94E2F7F82A82E03F
:100B900061E00E94E309015010408FEF0F3F1807FA
:100BA00099F682E060E00E94E3098F2D0F90CF91CB
:100BB000DF911F910F91FF90EF90DF90CF900895FC
:100BC000FF920F931F93F62E8C010D5A1E4FF801C2
:100BD000808160E00E94E30988E90E9492058F2DE0
:100BE0000E949205F801808161E00E94E309F8010A
:100BF000808160E00E94E30980EE0E949205F80186
:100C0000808161E00E94E3091F910F91FF90089598
:100C1000DF92EF92FF920F931F9363E5E62E61E060
:100C2000F62EE80EF91EF701808160E00E94E309CC
:100C300080E60E94920580E00E949205D82E80E016
:100C40000E949205082FF701808161E00E94E3096C
:100C50009D2D80E010E0082B192BC8011F910F91EA
:100C6000FF90EF90DF9008952F923F924F925F9206
:100C70006F927F928F929F92AF92BF92CF92DF92AC
:100C8000EF92FF920F931F93CF93DF9389E792E048
:100C90000E94B50B882309F47BC189E792E00E948A
:100CA000C90B482F80939E0120914F013091500134
:100CB0008FEF2F3F3807F9F4473481F048341CF4A4
:100CC000433491F40EC04D3419F0433569F403C038
:100CD00081E090E00BC082E090E008C083E090E00B
:100CE00005C084E090E002C08FEF9FEF9093500129
:100CF00080934F014DC1A0915101B0915201A63096
:100D0000B10550F0842F992787FD9095C097909357
:100D10005201809351013CC14A3229F180919F01D7
:100D20009091A0019C0163E0220F331F6A95E1F7C7
:100D3000880F991F280F391F3093A00120939F011E
:100D40004D3221F481E08093A10122C12053304033
:100D5000842F992787FD9095280F391F3093A00184
:100D600020939F0115C18091A101882359F08091A2
:100D70009F019091A001909581959F4F9093A00124
:100D800080939F0122303105F9F0233031052CF496
:100D90002130310509F0D4C008C02330310571F18C
:100DA0002430310509F0CCC054C0AA0FBB1FA0529B
:100DB000BE4F80919F019091A0018D939C9389E7F4
:100DC00092E060E071E0BAC060919F017091A00173
:100DD000CD010E94E005E0915101F0915201EE0F2A
:100DE000FF1FE052FE4F80919F019091A0019183DF
:100DF000808389E792E064E071E0A0C0CDB7DEB700
:100E000028970FB6F894DEBF0FBECDBFEDB7FEB783
:100E1000319602EA11E01A83098388E091E0938316
:100E20008283B583A483AA0FBB1FAC52BE4F8D91A2
:100E30009C91978386830E948D00EDB7FEB738960C
:100E40000FB6F894FEBF0FBEEDBF89E792E0B80180
:100E500075C0CD010E9408068C01CAE0D0E08091E7
:100E600051019091520164EF71E00E9485058091DB
:100E70005101909152010E9408068017910719F0C4
:100E8000CAE0D0E001C021978091510190915201B8
:100E90000E9408068C01E0919901F0919A01EE0FF1
:100EA000FF1FE357FE4F608171818AE891E041E0C6
:100EB0000E94290562E370E080E090E00E945F09F3
:100EC0008AE891E00E94C80480919D0120919901D7
:100ED00030919A01882319F02150304002C02F5FD1
:100EE0003F4F30939A0120939901809199019091FD
:100EF0009A018530910521F481E080939D0104C021
:100F0000892B11F410929D011C161D060CF4A7CF1D
:100F1000809151019091520160E070E00E94E005E3
:100F2000E0915101F0915201EE0FFF1FE052FE4F90
:100F30001182108289E792E060E171E00E94750CF5
:100F4000E0915101F0915201E630F10588F4EE0F85
:100F5000FF1FE357FE4F608171818AE891E041E015
:100F60000E94290582E390E090939C0180939B016D
:100F70008FEF9FEF9093500180934F019093520118
:100F8000809351011092A00110929F011092A10133
:100F900080919B0190919C011816190634F40197D9
:100FA00090939C0180939B0104C08AE891E00E9489
:100FB000C80414ED612E11E0712EB0EE8B2EB1E05D
:100FC0009B2EC0E0D0E0A4EF2A2EA1E03A2E412CC7
:100FD000512CCE010E940806F301819391933F01A9
:100FE00000D000D0F401219131914F01821B930B6D
:100FF000AA2797FDA095BA2FEDB7FEB721823282BE
:1010000043825482BC01CD0126EF3FEF4FEF5FEFEB
:10101000FAE0EF2EF12C012D112DECE0AE2EEEEFCB
:10102000BE2EEFEFCE2EEFEFDE2E0E949F0C9B0127
:10103000AC010F900F900F900F90CE01B9010E945C
:1010400085052196C630D10521F6DF91CF911F91FC
:101050000F91FF90EF90DF90CF90BF90AF909F9057
:101060008F907F906F905F904F903F902F9008955A
:10107000EF92FF920F931F93CF93DF9382EC91E057
:1010800063E070E00E94040485EC91E065E070E0AC
:101090000E94040488EC91E066E070E00E94040481
:1010A0008BEC91E069E070E00E9404048EEC91E02A
:1010B0006AE070E00E94040481ED91E06BE070E072
:1010C0000E94040489E792E040E855E260E070E0A5
:1010D0000E94BC0A87E061E00E94C30984E060E0EE
:1010E0000E94C30982E061E00E94C30989E792E09F
:1010F00064E171E00E94940C03E511E07801C0E026
:10110000D0E0F701808161E00E94C309F70181917D
:101110007F0161E00E94E309FE01EC52FE4F118263
:101120001082FE01E052FE4F118210822296F9E5F4
:10113000EF16F1E0FF0629F7F801808161E00E94D7
:10114000C309F801808161E00E94E309F801808110
:1011500060E00E94E30988E80E94920583E00E9413
:101160009205F801808161E00E94E3096AE070E085
:1011700080E090E00E945F09F801808160E00E94B9
:10118000E30980E90E94920582E00E949205F8013D
:10119000808161E00E94E3096AE070E080E090E015
:1011A0000E945F09F801808160E00E94E30980E20B
:1011B0000E949205F801808161E00E94E3096AE0E3
:1011C00070E080E090E00E945F09F801808160E0BB
:1011D0000E94E30980E30E949205F80181918F014A
:1011E00061E00E94E3096AE070E080E090E00E9424
:1011F0005F090E151F0509F09FCF89E792E06BE2AA
:1012000071E00E94750C6AE070E080E090E00E945E
:101210005F09DF91CF911F910F91FF90EF9008959B
:101220000E9489090E9438080E943406FDCF1F924F
:101230000F920FB60F9211242F933F938F939F938A
:10124000AF93BF938091F0019091F101A091F201D1
:10125000B091F3013091F4010196A11DB11D232F2E
:101260002D5F2D3720F02D570196A11DB11D209324
:10127000F4018093F0019093F101A093F201B093F7
:10128000F3018091EC019091ED01A091EE01B091FC
:10129000EF010196A11DB11D8093EC019093ED012A
:1012A000A093EE01B093EF01BF91AF919F918F9109
:1012B0003F912F910F900FBE0F901F901895EF92B6
:1012C000FF920F931F937B018C018FB7F89440918D
:1012D000F0015091F1016091F2017091F3018FBF23
:1012E0002FB7F8948091F0019091F101A091F20153
:1012F000B091F3012FBF841B950BA60BB70BE8161B
:10130000F9060A071B0760F71F910F91FF90EF90F6
:101310000895789484B5826084BD84B5816084BD6D
:1013200085B5826085BD85B5816085BDEEE6F0E05E
:10133000808181608083E1E8F0E080818260808349
:10134000808181608083E0E8F0E08081816080833B
:10135000E1EBF0E0808184608083E0EBF0E080816D
:1013600081608083EAE7F0E080818460808380810F
:1013700082608083808181608083808180688083B7
:101380001092C1000895282F30E0C90186569F4F62
:10139000FC0194912A573F4FF9018491882391F0E1
:1013A000E82FF0E0EE0FFF1FE859FF4FA591B49131
:1013B000662329F48C91909589238C9308958C91C0
:1013C000892B8C930895482F50E0CA0182559F4F76
:1013D000FC012491CA0186569F4FFC0194914A5703
:1013E0005F4FFA0134913323D1F1222331F12330BD
:1013F00021F4809180008F7705C0243031F48091F2
:1014000080008F7D8093800018C0213019F484B54E
:101410008F7704C0223021F484B58F7D84BD0DC048
:10142000263021F48091B0008F7705C0273029F451
:101430008091B0008F7D8093B000E32FF0E0EE0F3D
:10144000FF1FEE58FF4FA591B491662329F48C91AC
:10145000909589238C9308958C91892B8C93089572
:10146000682F70E0CB0182559F4FFC012491CB0186
:1014700086569F4FFC0144916A577F4FFB01949120
:10148000992319F420E030E038C0222331F12330D1
:1014900021F4809180008F7705C0243031F4809151
:1014A00080008F7D8093800018C0213019F484B5AE
:1014B0008F7704C0223021F484B58F7D84BD0DC0A8
:1014C000263021F48091B0008F7705C0273029F4B1
:1014D0008091B0008F7D8093B000892F90E0880FBD
:1014E000991F84589F4FFC01A591B4918C9120E0E5
:1014F00030E0842311F021E030E0C90108951F920B
:101500000F920FB60F9211242F933F934F935F9337
:101510006F937F938F939F93AF93BF93EF93FF93BB
:101520004091C600E0917502F0917602CF010196DC
:1015300060E870E00E94130D9C0180917702909109
:1015400078022817390739F0EB50FE4F408330936B
:10155000760220937502FF91EF91BF91AF919F9119
:101560008F917F916F915F914F913F912F910F904C
:101570000FBE0F901F9018955F926F927F928F927F
:101580009F92AF92BF92CF92DF92EF92FF920F9312
:101590001F93CF93DF93EC013A014B01413482E476
:1015A00058078FE0680780E078070CF07FC060E89C
:1015B00074E88EE190E0A40193010E94480D21504F
:1015C000304040405040CA01B90122E030E040E0E4
:1015D00050E00E94480D59016A01A601950120952D
:1015E00030954095509594E0220F331F441F551FAE
:1015F0009A95D1F760E074E284EF90E00E94480D84
:10160000CA01B9012FEF30E040E050E00E94E80C41
:10161000A40193010E94480DC90181509F4F1816E3
:1016200019061CF4522E5A9403C055245394521A8E
:1016300060E079E08DE390E0A40193010E94480D01
:101640002150304040405040CA01B90122E030E012
:1016500040E050E00E94480D20953095409550950F
:1016600083E0220F331F441F551F8A95D1F760E096
:1016700074E284EF90E00E94480DCA01B9012FEF97
:1016800030E040E050E00E94E80CA40193010E9489
:10169000480DC90181509F4F181619061CF4822F5E
:1016A000815002C081E0821B851500F5E885F9852F
:1016B00081E090E00A8802C0880F991F0A94E2F73F
:1016C000808360E079E08DE390E0A40193010E94C3
:1016D000480D2150304040405040CA01B90122E03D
:1016E00030E040E050E00E94480D04C0E885F985F4
:1016F00010829501EC81FD813083EE81FF81208392
:10170000EA85FB85208141E050E0CA010E8402C0D9
:10171000880F991F0A94E2F7282B2083EA85FB851E
:101720002081CA010F8402C0880F991F0A94E2F732
:10173000282B2083EA85FB858081088802C0440F1E
:10174000551F0A94E2F7842B8083DF91CF911F917C
:101750000F91FF90EF90DF90CF90BF90AF909F9050
:101760008F907F906F905F900895DC011296ED91BD
:10177000FC911397E058FF4F8191919180589F4FB2
:1017800020813181821B930B60E870E00E94130D71
:101790000895CF93DF93DC011296ED91FC9113979E
:1017A000EF01CE57DF4F48815981E058FF4F8081CC
:1017B0009181E058F0408417950719F42FEF3FEF1F
:1017C0000CC0E40FF51F2081CA01019660E870E0AB
:1017D0000E94130D9983888330E0C901DF91CF9176
:1017E0000895FC01A085B18521898C9190E0022E9D
:1017F00002C0959587950A94E2F780FFF6CF04849E
:10180000F585E02D608308958DE591E090937A024F
:101810008093790285EF91E090937C0280937B0224
:1018200085EC90E090937E0280937D0284EC90E0C2
:101830009093800280937F0280EC90E090938202EC
:101840008093810281EC90E09093840280938302E4
:1018500086EC90E0909386028093850284E08093EA
:10186000870283E08093880287E08093890285E085
:1018700080938A0281E080938B0208950F931F93D7
:10188000CF93DF938C01EB0109C02196D801ED9134
:10189000FC910190F081E02DC801099568816623D3
:1018A000A1F7DF91CF911F910F910895EF92FF92D1
:1018B0000F931F93CF93DF938C017B01EA010CC040
:1018C000D7016D917D01D801ED91FC910190F081DE
:1018D000E02DC80109952197209791F7DF91CF91CD
:1018E0001F910F91FF90EF900895DC01ED91FC9115
:1018F0000280F381E02D099508950F931F938C01C9
:10190000DC01ED91FC910190F081E02D6DE00995F5
:10191000D801ED91FC910190F081E02DC8016AE0C1
:1019200009951F910F9108950F931F938C010E94A9
:10193000750CC8010E947D0C1F910F9108952F9284
:101940003F924F925F926F927F928F929F92AF924F
:10195000BF92CF92DF92EF92FF920F931F93DF938C
:10196000CF93CDB7DEB73B014C0119012A016D8938
:101970007E898F89988D6A197B098C099D09621A65
:10198000730A840A950AA40193010E94E80CE218E4
:10199000F30804091509A80197010E94480D2A0DB2
:1019A0003B1D4C1D5D1DB901CA01CF91DF911F91F7
:1019B0000F91FF90EF90DF90CF90BF90AF909F90EE
:1019C0008F907F906F905F904F903F902F900895F1
:1019D000629FD001739FF001829FE00DF11D649F13
:1019E000E00DF11D929FF00D839FF00D749FF00D9F
:1019F000659FF00D9927729FB00DE11DF91F639F40
:101A0000B00DE11DF91FBD01CF0111240895991BEF
:101A100079E004C0991F961708F0961B881F7A95E5
:101A2000C9F78095089597FB092E07260AD077FD00
:101A300004D049D006D000201AF4709561957F4FEC
:101A40000895F6F7909581959F4F0895A1E21A2E7B
:101A5000AA1BBB1BFD010DC0AA1FBB1FEE1FFF1F52
:101A6000A217B307E407F50720F0A21BB30BE40BA2
:101A7000F50B661F771F881F991F1A9469F76095E9
:101A80007095809590959B01AC01BD01CF010895A3
:101A900097FB092E05260ED057FD04D0D7DF0AD0BC
:101AA000001C38F450954095309521953F4F4F4F8D
:101AB0005F4F0895F6F790958095709561957F4FEB
:101AC0008F4F9F4F0895AA1BBB1B51E107C0AA1F50
:101AD000BB1FA617B70710F0A61BB70B881F991FCF
:101AE0005A95A9F780959095BC01CD010895EE0F08
:101AF000FF1F0590F491E02D09942F923F924F9291
:101B00005F926F927F928F929F92AF92BF92CF928D
:101B1000DF92EF92FF920F931F93CF93DF93CDB796
:101B2000DEB7CA1BDB0B0FB6F894DEBF0FBECDBF0E
:101B300009942A88398848885F846E847D848C84DF
:101B40009B84AA84B984C884DF80EE80FD800C81E8
:101B50001B81AA81B981CE0FD11D0FB6F894DEBFCB
:0C1B60000FBECDBFED010895F894FFCF3B
:101B6C002A4D21002A5321002A5025752564210075
:101B7C002A43210053657474696E67207570206365
:101B8C006F756E746572732E2E2E00456E636F64C6
:101B9C0065727320636F6E666967757265642E007B
:101BAC00080C0D010202010200000200010100FFFD
:101BBC00FFFFFF0E0F1011121300000000F10B3E7F
:041BCC000C560C00A7
:00000001FF
